:10000000F8FF002011040000873D0000873D00003C
:10001000873D0000873D0000873D0000873D0000D0
:10002000873D0000873D0000873D0000873D0000C0
:10003000873D0000873D0000873D0000873D0000B0
:10004000873D0000873D0000873D0000873D0000A0
:10040000FFFFFFFFFFFFFFFFFFFFFFFFFEFFFFFFFD
:1004100062B605F0CFF9FEE72DE9F04FA1B08246B4
:1004200002AE002017461D46029170620DF144088D
:100430000AE017F8011B0298D0470290002800F04C
:10044000DA82706A401C7062387808B9706AD4E247
:100450002528EED10020F06030617061B061F0615C
:10046000306201E040F0010017F8011F2029F9D0A7
:1004700023290DD02B2904D02D2906D030290AD0CC
:100480000CE040F0020080B2EEE740F00400FAE732
:1004900040F00800F7E740F01000F4E72A290DD1FA
:1004A00029680A1D2A600968F162002904D54942B9
:1004B00040F00400F16280B27F1C13E00021F16281
:1004C0000BE0F16A6FF00043994205D001EB810324
:1004D00002EB43013039F1627F1C3A78A2F130011E
:1004E0000A29EED339782E2903D04FF0FF31B162BB
:1004F0001EE017F8011F2A2906D129680A1D2A6063
:100500007F1C0968B16213E00021B1620BE0B16A9F
:100510006FF00043994205D001EB810302EB4301E8
:100520003039B1627F1C3A78A2F130010A29EED34A
:1005300030860FF64840397800F03EFE08B117F8D3
:10054000010B8DF83A009DF83A00682802BF39780F
:100550006829622005D06C2804BF38786C2803D144
:1005600071208DF83A007F1C11A8B0603978B1F184
:10057000250029D01C3800F0C080001F022840F25E
:10058000BC80133800F0E480093800F0B680801E8B
:1005900000F07781401E00F02081401E022840F2CA
:1005A000AC80001F00F01981401F7BD0401E00F07E
:1005B000CF80401E22D0C01E0BD0801E00F0C8800D
:1005C000C01E00F0C58064E1F068411CF160252187
:1005D00069E12868011D29600068B26A7060002A1C
:1005E00002D500F0F5FD07E0002100F00DFE002827
:1005F0001ABF7168401AB06A306156E12868011D5F
:10060000296000210068CDE900014FF03C0E11A8DF
:100610007060DDE9000111B908B9B26ACAB1020619
:10062000120FA0EB02123032AEF10103D2B29E469D
:100630003A2AA8BF2732000903F8082040EA0170CF
:10064000090908BF002804D0726811AB73449A42AC
:10065000E5D311A971447160CEF13C00B16A3061FB
:10066000884207DA081AB0614FF6EF71308E084001
:1006700030861AE1002940F1188196F8301001F017
:100680001401102940F01181F16AF268891AB269E7
:10069000891AA1EB000EBEF1010FC0F20681C6F867
:1006A00018E002E19DF83A00622818D0682806D0C8
:1006B0006A280BD06C2819D0712807D016E028685A
:1006C000011D29600068716A0180EEE02A68101D32
:1006D00028601268706AC117C2E90001E5E0286865
:1006E000011D29600068716A0170DEE02868011D43
:1006F00029600068716A0160D7E02868C01D20F099
:100700000700286000F108022A60D0E90023CDE943
:100710000023002B04D5F068421CF2602D220DE06E
:10072000308E820704D5F068421CF2602B2205E06F
:10073000C00705D5F068421CF260202200F80820AE
:10074000F06811AA8018706000A800F0E3F9ACE02E
:100750009DF83A006C2808BF2A6811D0712808BF9C
:100760002A6802D02A686A280AD1D21D22F007021C
:100770002A60144604F108022A60D4E9002303E049
:10078000131D2B6000231268CDE90023682808BFE1
:1007900092B207D0622808BFD2B203D0742818BF23
:1007A0007A2802D10023CDE9002396F83000000713
:1007B0005FD5DDE90023002B08BF002A59D041F0A6
:1007C0002000782855D1F068302200F80820401C1D
:1007D000421CF26000F808104BE09DF83A006228D5
:1007E0000CD0682810D06A281AD06C2823D0712821
:1007F00016D074281FD07A280CD01CE02868021D5F
:100800002A6090F900201AE02868021D2A60B0F9D9
:10081000002014E02868021D2A60002302680FE00F
:100820002868C01D20F00700286000F108022A6037
:10083000D0E9002304E02868021D2A600268D3176B
:10084000CDE90023002B04DAF068421CF2602D226F
:100850000DE0308E820704D5F068421CF2602B2236
:1008600005E0C00705D5F068421CF260202200F8C0
:100870000820F06811AA8018706000A800F0C0F885
:1008800013E0F068411CF16029680A1D2A600968BC
:1008900009E0F068421CF260252200F8082021B12E
:1008A000F068421CF26000F80810F06AF168401A23
:1008B000B169401A3169401AF169401A7169401AE8
:1008C000316AA0EB010996F830007F1C400710D474
:1008D00020208DF84000002409E0012310AA00A97F
:1008E000504600F034FC002840F08580641C4C45E4
:1008F000F3DBF4680DF1440B0AE01BF8011B0298CE
:10090000D0470290002876D0706A401C7062641E46
:10091000002CF2D130208DF840004FF0000BB4696C
:1009200009E0012310AA00A9504600F010FC00289D
:1009300061D10BF1010BA345F3DB3469D6F804B0A8
:100940000AE01BF8011B0298D0470290002852D001
:10095000706A401C7062641E002CF2D130208DF849
:1009600040004FF0000BF46909E0012310AA00A930
:10097000504600F0ECFB00283DD10BF1010BA345E4
:10098000F3DB30697168746900EB010B09E01BF857
:10099000011B0298D047029068B3706A401C7062D5
:1009A000641E002CF3D130208DF840004FF0000B76
:1009B000346A08E0012310AA00A9504600F0C7FBE2
:1009C000C8B90BF1010BA345F4DB96F830004007E2
:1009D0007FF53AAD20208DF84000002400E0641C33
:1009E0004C45BFF631AD012310AA00A9504600F0D6
:1009F000AEFB0028F3D04FF0FF3021B0BDE8F08F00
:100A00002DE9FA47064682B035690A466F2A08BFC3
:100A1000082705D041F02000782814BF0A271027A6
:100A2000D6E900013C2480468946642A18BF692A19
:100A300005D1002903DAD8F1000869EB4909B9F1B9
:100A4000000F08BFB8F1000F0CD1306B50B9082F60
:100A50003BD196F83800000737D530203B2485F885
:100A60003B0032E0CDE90089FB17404649463A4653
:100A700000F0F6FBB846A8FB0023DDE90089A8EBEF
:100A800002023032A4F1010AD2B254463A2A03DB00
:100A90009DF80830513B9A180AF8052080465FEA15
:100AA000010908BFB8F1000F03D0F068611988424E
:100AB000D8D3082F09D196F83800000705D5605D16
:100AC000302802D0641E30206055C4F13C00B06173
:100AD0006119F160316B884207DA081A30624FF60B
:100AE000EF71308F0840308710E000290ED596F85E
:100AF000381001F01401102908D1716B7269891A3C
:100B0000326A891A081A0128A8BF306204B0BDE809
:100B1000F08700002DE9F24F04468EB0D4E90001C1
:100B2000CDE9020104AE9DF8380040F020000090AD
:100B300061280AD0206B002848BF062004D404BFD7
:100B40000098672801D1012020636168C1F30A5031
:100B500040F2FF7290421CD1080304BF20680028B5
:100B600009D10320A0619DF8380061381A2836D3D6
:100B70000FF21C6108E00320A0619DF83800613885
:100B80001A2829D30FF20061E068032200F0E0FB8D
:100B9000B5E1012816DA204600F015FC012811DB2A
:100BA000002700200099612920D1E168302201F856
:100BB000012B4A1CE2609DF83820612A0CBF782284
:100BC00058220FE0626840F2FE3161F31E52471A6C
:100BD00062604FF0FF30E5E70FF2A851D4E70FF263
:100BE000AC51D1E70A706169891C616110B90025B7
:100BF00000277BE10098612840F09680206B002858
:100C00004CBF2125451CDDE902012DB26E1CD4E943
:100C100000890022002300F0F7FB3ABF89F0004072
:100C2000CDE90280CDE902893F1F8DF810200DF13A
:100C3000110801E000F20708012E32DBDDE90201B4
:100C40000022002300F0F8FB2BD21C2102A800F0A8
:100C50000BFCDDE9020100F08DFCF61F8146012E40
:100C600009DB00F0B3FC02460B46DDE9020100F0AF
:100C7000C5FCCDE9020108F20700072105E009F0F3
:100C80000F0200F8012D4FEA2919B9F1010F01DB1C
:100C9000491EF4D5491E5CBF002200F8012DF9D58C
:100CA000C8E70DF11100A8EB00010DF11106A942F2
:100CB000B8BF0D462DB228002FD4884206DA04A909
:100CC000411849780829A8BF0F2100DA002104AA99
:100CD000821800E06D1E12F80139401E8B42F9D0D7
:100CE0000F2904D104A941184A78521C4A700028DF
:100CF00002D504AE6D1C3F1D2DB2681E0DD48119A6
:100D00000A783032D2B23A2A03DB9DF838303A3BC7
:100D10009A1801F80129401EF2D5206B002840F1F5
:100D2000E580681E2063E1E0DDE902010022002386
:100D300000F06AFB3CBF81F00041CDE902013FB207
:100D400047F2975078434849DFF820B190FBF1F71C
:100D50003FB2C7F107069246012E19DBDDE9028991
:100D6000F00707D552465B464046494600F006FD6F
:100D70008046894676105046594652465B4600F0FA
:100D8000FDFC82468B46002EEAD1CDE9028921E0A6
:100D900076429046DFF8D89012E0F00707D5524629
:100DA0005B464046494600F0E9FC8046894676109D
:100DB0005046594652465B4600F0E0FC82468B4660
:100DC000002EEAD1DDE9020142464B4600F0A8FDC3
:100DD000CDE90201009866280CBF07F10A00062041
:100DE000216B4518142DA8BF132530208DF8100055
:100DF0000DF11106DFF87C90012D3DDBDDE90201EC
:100E000000F0CEFB06F1080104220A23B0FBF3F345
:100E100003EB8306A0EB4600303001F8010D0A20F9
:100E2000B3FBF0F000EB8006A3EB4603303301F890
:100E3000013D521EE9D1083D01F10806012DDBDB21
:100E4000DDE9020100F0ACFB00F0CAFB02460B46F4
:100E5000DDE9020100F0D2FB00224B4600F08EFCDF
:100E6000CDE90201CAE700BFA086010000002440CE
:100E70000000F03F84D797410DF11100301A0DF1B9
:100E8000110602E0401E7F1E761C31783029F9D011
:100E90000099662902D13FB2791C03E065290CBF95
:100EA00001210021226B8D182DB2A842B8BF054642
:100EB0002DB229001AD4814204DA885D3528A8BFF2
:100EC000392000DA30208A19521E00E06D1E12F817
:100ED0000139491E8342F9D0392802D1885D401C6E
:100EE0008855002902D5761E6D1C7F1C3FB29DF8E7
:100EF000381000972BB23246204600F003F80FB0AE
:100F0000BDE8F08F2DE9F04786B006468A46904648
:100F10001D4600F046FE406A376B90F80090012DA8
:100F200002DA01250FF26C284AF02000BDF93840A2
:100F3000662808BF641C12D0672875D114F1040F0D
:100F400078DBBC4276DA96F83800641C000702D4DD
:100F5000BD42B8BF2F4624B23F1B48BF0027F068F0
:100F6000B16924B2012C21DA30234A1C0B54012F21
:100F700003DA96F83810090702D502F80090521CDF
:100F8000B261E742B8BF7C4224B26142E7197162A4
:100F9000AF42B8BF3D462DB2F5612A46B36941461E
:100FA000181800F0D5F9781BB062B9E00818A5420E
:100FB00016DA2A46414600F0CBF9B1696918B161E9
:100FC000601B7062012F03DA96F83800000705D520
:100FD000F06801F80090F069401CF061B7629FE092
:100FE0002246414600F0B4F9B06920182D1B012FAC
:100FF00003DA96F83810090703D5F16800F8019074
:10100000401C2DB2B061AF42B8BF3D46F3682DB26F
:101010002A4604EB0801C01800F09AF9B0692818B4
:10102000B061781B70627BE0BAF1610F14D14FF0B0
:10103000700A16E0BD4204DA96F83810090758BF66
:101040002F467F1E48BF0027BAF1670F14BF4FF02D
:10105000450A4FF0650A04E0BAF1410F08BF4FF0AE
:10106000500AB169F06818F8013B0B544A1C012F73
:1010700005DA96F83810090758BFB26115D502F89D
:101080000090531CB361012F0FDB6D1E2DB2AF42D8
:10109000B8BF3D462DB22A464146181800F058F90F
:1010A000B0692818B061781B7062B069F16800EB14
:1010B0000108200008F801AB03D42B2008F8010B2D
:1010C00003E02D2108F8011B6442002502AF08E06F
:1010D0000A2200A800F07EFD019807F8010B6D1CA4
:1010E000009C21B20129F3DA022D06DA4AF0200031
:1010F000652804BF302008F8010B4DB9302008F8EE
:10110000010B07E06D1E02A8285C303008F8010BC7
:10111000012DF7DAB069F1684018A8EB0000F06122
:1011200096F8380000F0140010280DD17069B169EC
:101130000818716A0818F1690818B16A0818716B03
:101140008842BCBF081A306206B0BDE8F087F8B527
:1011500004460D4616461F46002004E0E86A401C7F
:10116000E8627F1E002047B116F8011BA868A0475F
:10117000A8600028F2D14FF0FF30F2BD686A6C74AD
:101180007A4C00006E616E004E414E00696E660042
:10119000494E4600300050F8041B61B150F8042B52
:1011A000D30744BFA9F101039A18002342F8043B76
:1011B000091FFAD1EFE770470278C9B28A421AB123
:1011C0001CBF10F8012FF9E718BF0020704700007E
:1011D00000F10103810704D010F8011B89B18107D8
:1011E000FAD10268B2F10131914311F0803F04BF9E
:1011F00050F8042FF6E710F8011B11B110F8011B8D
:10120000FBE7C01A70470000C9B2830706D0521E20
:1012100022D310F8013B9942F7D11FE0083A13D3CB
:1012200002F1040241EA012141EA014150F8043B84
:10123000121F21BF4B40A3F1013C2CEA030C1CF010
:10124000803FF3D0C9B2001F083210F8013B521E94
:1012500028BF91EA030FF8D818BF0120401E70473D
:101260001B4213D1094236D12AB18446B0FBF2F0B9
:1012700002FB10C2704700F0B5BCFCD30022002373
:1012800070470B000200002100207047904271EB74
:10129000030CF6D370B5B1FA81F4B3FA83F52C1BC5
:1012A000A340C4F1200532FA05F63343A2405FF0B3
:1012B0000046E64002E05B085FEA3202841A71EB06
:1012C000030524BF204629467641F4D302000B00D3
:1012D0003000002170BD012ACFD970B5140C20D088
:1012E000B1FA81F4B2FA82F5C4F120046419B4F1C0
:1012F0002006D6D3B2405FF00044F440002502E05F
:1013000052085FEA3303C61A71EB020E24BF30465F
:10131000714664416D41F3D302000B0020002900A7
:1013200070BD0C46B1FBF2F102FB11452D0445EAFC
:101330001045B5FBF2F402FB145580B240EA0545B6
:10134000B5FBF2F002FB105240EA044070BD000011
:1013500062B38B0708D0521E11F8013B00F8013B25
:1013600000F024808B07F6D1830740F0208000BF77
:10137000103A07D330B4B1E83810103AA0E838106A
:10138000F9D230BC530724BFB1E80810A0E8081018
:1013900044BF51F8043B40F8043BD20724BF31F866
:1013A000022B20F8022B44BF0B7803707047083AD9
:1013B00007D3B1E80810083A40F8043B40F804CBE2
:1013C000F7D25307E4E730B4436803F00042012149
:1013D0001B031B0B436004BF0368002B08D10DE007
:1013E0000368DD0F45EA440444605B000360491E66
:1013F0004468E302F4D523031B0B436043681A439C
:101400004260084630BC70474FF4001C1CEB410F93
:1014100094BF1CEB430F09E041EA030C50EA4C0C6B
:1014200052EA0C0C03D2994208BF9042704714BF95
:101430008B428242704700004FF4001C1CEB410FAE
:1014400094BF1CEB430F09E041EA030C50EA4C0C3B
:1014500052EA0C0C03D28B4208BF8242704714BF81
:10146000994290427047000070B504460D4660688E
:10147000C0F30A5040F2FF71884207D16068000350
:1014800004BF2068002817D0022070BD20B9204674
:10149000FFF799FF012867DA012D0FDB40F2FF719A
:1014A000091A8D420AD36068002847BF00202F49DF
:1014B00000202F49C4E90001012070BD4142A9422A
:1014C000616806DA6FF31E51401941EA005060600E
:1014D00041E0401E63680122451962F31F5305F184
:1014E000350001F000416360352803D361600020BE
:1014F000206070BD002215F11F0F04DA22682360FE
:10150000002020356060684213D0521E2568924149
:10151000C0F12003D2439D4045EAD2722568666837
:10152000C54006FA03F32B432360636823FA00F0F7
:101530006060606808436060B2F1004F03D80DD16D
:101540002078C0070AD52068401C2060206828B990
:101550006068401C60604FF0FF3070BD606888427A
:1015600004BF20680028F6D1002070BD0000F0FF05
:101570000000F07FF446400D40EAC120490006D249
:1015800000F014F8004248BF6FF00040604700F0E0
:101590000DF84FF0004188428CBF0846404260473A
:1015A000400D40EAC120490080F00D8040F000402D
:1015B000490DA1F58061491C05D4D1F11F0154BF2B
:1015C000C840C01770474FF000007047010040F15D
:1015D0000980F446404200F005F851F000416047B0
:1015E000010000BF09D0B0FA80F18840C91CC1F5E4
:1015F0008461090501EBD0214005704770B44FF0BC
:10160000004591EA030F44BF6B4000F0F7BA00BFFA
:10161000841A71EB030604D26E40001BB14112190B
:1016200073414FF4001C1CEB410F34BF7CEB4306AD
:1016300084E00C0DA4EB1356362E7DDC012E43DC2A
:1016400045EAC32343EA525312BFD20292025B0817
:10165000240545EAC12141EA5051D2EBC02099410D
:1016600025D407D1B0FA80F610FA06F164D0002034
:10167000203608E0B1FA81F6B140C6F1200220FA26
:1016800002F21143B0404FEAF474B4EB465434F024
:1016900001064FEA74040AD8D6F50016760D04F058
:1016A0000044F04061FA06F25040F1404840C00A60
:1016B00040EA415021F0004128BF5FEA500550F157
:1016C000000044EBD12137E045EAC323DB0A45EAB9
:1016D000C121C90AB6F120050EDD42EA0242120C10
:1016E000C5F1200603FA06F6EB4042EA06056D4214
:1016F000984161F100010DE062FA06F5F2405540B3
:1017000063FA06FC82EA0C02F3405A406D429041B3
:1017100061EB030111F4801F05D1641E620502D044
:101720006D004041494121F48011430875F10043A7
:1017300050F1000041EB045170BC70471CEB410FAD
:1017400015D223F0004352EA43060BD04FEA4C0C6B
:10175000BCEB410F04D80C0D661E342EB7DDEBE751
:10176000801A994150EA410608BF0021E4E708BF0A
:101770001CEB430F28BF6FF00001DDE7B0B581EA35
:10178000030C0CF0004C40F2FF7515EA11541DBF1C
:1017900015EA1357AC42AF4239E0E41923EA455346
:1017A00043F48013C90241F0004141EA505EC70290
:1017B0001100A7FB020200284FF00000EEFB012001
:1017C0004FF00001E3FB072118BF42F0010240186F
:1017D00000214941E3FB0E01A4F580640F0302D20E
:1017E00052004041494154F101046CDD470872F157
:1017F000004250F1000051EB0451A1F580115CBF93
:1018000041EA0C01B0BD4CEA05510020B0BD05EA2B
:101810001357AC4214BFAF4241E050EA410E1CBF27
:1018200052EA430E02E061460020B0BD24423C442F
:101830001BD15FEA070EF6D0090302BF0146002064
:10184000AEF1140EB1FA81F7AEEB070401FA07FE10
:101850000C37C7F1200100FA07F7C8404EEA000E26
:1018600023EA455343F48013A2E733F00043B3FA6D
:1018700083F704BFB2FA82FE77440B3FE41BB7F153
:10188000200E2FBF02FA0EF3BB40C7F1200E22FA42
:101890000EFE38BF43EA0E03BA40641C82E750EAEA
:1018A000410E14BF52EA430E6FF000014FF40017CF
:1018B00017EB430F8ABF194617EB410FB5E74CEA08
:1018C00005510020B0BDD4F10104B4F120070FDAB6
:1018D000C4F12007520828BF42F0010210FA07F5B0
:1018E00001FA07F7E1BF2A43E0403843E1400FE047
:1018F000352C98DCC7F1200452EA400220FA07F2A6
:1019000018BF42F0010231FA07F0A1400A4300215A
:1019100072F1004250F1000051EB0C01B0BD00002B
:10192000F0B540F2FF7581EA030C0CF0004C15EAAB
:1019300011541DBF15EA1357AC42AF42E5E0BC415C
:10194000C1F31301C3F31303801A994143F48013C5
:1019500004D2641E4000494180185941C90241EA3D
:101960005051B1FBF3F603FB1611A2FB0675D7EB42
:10197000C020A94102D2761E80185941C90241EA0D
:101980005051B1FBF3FE03FB1E11A2FB0E75D7EB0A
:10199000C020A94103D2AEF1010E8018594189023D
:1019A00041EA9051760546EA8E2EB1FBF3F603FB31
:1019B0001611A2FB0675D7EB8020A94102D2761E34
:1019C00080185941C90241EA50514EEA060EB1FB56
:1019D000F3F603FB1611A2FB0675D7EBC020A94155
:1019E00002D2761E80185941C90241EA5051B1FB1A
:1019F000F3F703FB1711A2FB0735D3EBC020A94176
:101A000067F100070CBF004247F0010766F3D527D6
:101A10004FEA1E31B80814F5806412DDBD0775F178
:101A2000004250EB0E5051EB045111F5801F5CBF8A
:101A300041EA0C01F0BD4CF07F6141F0E041002033
:101A4000F0BDBD076D0840EA0E5041F48011D4F19D
:101A50000104B4F120060ADAC4F120060200E040D5
:101A600001FA06F3E1401843B24015430EE0342C6E
:101A700013DCC6F1200445EA40056D0820FA06F2A1
:101A8000154321FA06F0A1400D43002175F10042F3
:101A900050F1000051EB0C01F0BD00205FEA0C0199
:101AA000F0BDCFB992185B41B3FA83F704BFB2FA25
:101AB00082F6BF190B3FB7F120062FBF02FA06F3DB
:101AC000BB40C7F1200622FA06F638BF3343BA40BE
:101AD0001CB1E419641E33E77F4231F00041B1FAD2
:101AE00081F404BFB0FA80F6A4190B3CB4F12006CF
:101AF0002FBF00FA06F1A140C4F1200620FA06F635
:101B000038BF3143A0403C1B1AE7AC421ABF05EA7C
:101B10001357AF4212E050EA41061CBF52EA430697
:101B2000BFE750EA4107304661461CBF41EA055114
:101B3000F0BD52EA430C08BFC143F0BD00204FF492
:101B4000001616EB410F98BF16EB430F08BF16EBBC
:101B5000410F24BFC14305E016EB430F0CBF6146A4
:101B60004CEA0551F0BD000080B51348C046C046A0
:101B70000FF24801016041608160C1600161416113
:101B800081610FF23C0242628162C1620163416382
:101B90000FF2300282630FF23402C26301644164C7
:101BA00001BD10B50448C046C0460446206808B9C7
:101BB000FFF7DAFF204610BD780FFF1F000000007E
:101BC0002E00000066616C7365000000747275651C
:101BD0000000000091FBF2F303FB1211C0E9003199
:101BE000704700007047000070B44FF0004591EA64
:101BF000030C44BF6B40FFF70BBD00BF841A71EBB1
:101C0000030603D2001BB141121973414FF4001CAB
:101C10001CEB410F34BF7CEB430443E00C0DA4EB01
:101C20001356352E50DC45EAC323DB0A45EAC121B1
:101C3000C912B6F120050DDD63FA05F6EB4086EA20
:101C40000305124218BF45F00105C01851F100010B
:101C50000CD213E062FA06F5F2405540F3415A40C7
:101C6000B340F3405A408018594107D349085FEA0E
:101C700030005FEA350528BF45F0010501F5801108
:101C8000420875F1004250F1000041EB045170BC74
:101C90004FF4001C1CEB410F38BF70470020090DAA
:101CA000090570471CEB410F10D252EA43060BD0D6
:101CB000BCEB410F05D80C0DAB43661E342EB5DDD1
:101CC00002E0AB438018594170BC704770BC70474C
:101CD00038B500243EE000212F2000F033FFE4B2AD
:101CE000DFF8B419605400212E2000F02BFFE4B27D
:101CF000DFF8A4196118487100212D2000F022FF9F
:101D0000E4B2DFF894196118887200212A2000F0EB
:101D100019FFE4B2DFF880196118C8730021292087
:101D200000F010FFE4B2DFF87019611808750021A7
:101D3000282000F007FFE4B2DFF85C19611848764C
:101D40000121102000F0FEFEE4B2DFF8D41A21F8E1
:101D50001400641CE4B2052CBDDB002039E0C9B2DC
:101D6000C0B20522DFF8303902FB00328A185278FF
:101D7000C9B2C0B20523DFF8204903FB0043CB5CA6
:101D80009A4221D2C9B2C0B20522DFF80C3902FB57
:101D900000328A185278C9B2C0B20523DFF8F84879
:101DA00003FB0043CB18C9B2C0B20524DFF8E858E2
:101DB00004FB00540C5D5C70C9B2C0B20523DFF8AF
:101DC000D84803FB0043CA54491CC9B20429C6DBE6
:101DD000401CC0B2062801DA0021F6E701200CE021
:101DE000DFF83C1A0988C0B2DFF8342A32F8102034
:101DF0005118DFF82C2A1180401CC0B20528EFDBF7
:101E0000DFF81C0A0088052190FBF1F0DFF8141AB6
:101E10000880DFF88408C079163896214843DFF837
:101E2000081A0968163990FBF1F0DFF8001A0870FB
:101E3000DFF86408007B163896214843DFF8F01974
:101E40000968163990FBF1F0DFF8E8190870DFF83F
:101E500048088078163896214843DFF8CC1909687D
:101E6000163990FBF1F0DFF8D0190870DFF8280878
:101E7000C07E163896214843DFF8AC190968163938
:101E800090FBF1F0DFF8B4190870DFF80C08407C23
:101E9000163896214843DFF898190968163990FBDF
:101EA000F1F0DFF89C190870DFF8EC07807D163838
:101EB00096214843DFF870190968163990FBF1F054
:101EC000DFF880190870DFF880090068082823D13E
:101ED000DFF8C407C079DFF854190870DFF8B807D5
:101EE000007BDFF850190870DFF8AC078078DFF866
:101EF00048190870DFF8A007C07EDFF840190870A5
:101F0000DFF89407407CDFF838190870DFF888079D
:101F1000807DDFF830190870DFF810090078DFF8ED
:101F200024190978401ADFF824190860DFF8FC0842
:101F30000078DFF8101909780818DFF8141908601C
:101F4000DFF8F0080078DFF8F8180978401ADFF8B1
:101F500004190860DFF8DC080078DFF8E418097875
:101F60000818DFF8F4180860DFF8CC080078DFF80C
:101F7000CC180978401ADFF8E4180860DFF8B808D0
:101F80000078DFF8B81809780818DFF8D418086066
:101F9000002032BD80B5DFF8A40800780A2190FB4C
:101FA000F1F0002815D0022819D012D304281CD033
:101FB00015D306281FD018D3082828D021D30A28E3
:101FC0002BD024D30C282ED027D30E2837D030D3B3
:101FD0003BE0DFF89008DFF8901801603AE0DFF8A6
:101FE0008408DFF88818016034E0DFF87808DFF84B
:101FF0007C1801602EE0DFF86C08DFF870180160D3
:1020000028E0DFF86008DFF86418016022E0DFF8FC
:102010005408DFF85C1801601CE0DFF84808DFF8BE
:102020005018016016E0DFF83C08DFF84418016042
:1020300010E0DFF83008DFF83C1801600AE0DFF854
:102040002408DFF83418016004E0DFF81808DFF82E
:1020500028180160DFF8F40700686421DFF8F4272E
:10206000126864235A4301FB0020DFF8E417096873
:1020700090FBF1F0DFF80418086013E00022002163
:10208000002000F0EBFE00220121002000F0E6FE1F
:1020900000220221002000F0E1FE002203210020A6
:1020A00000F0DCFEDFF88407007805280EDADFF8A0
:1020B00084070078052809DADFF884070078052806
:1020C00004DADFF8800700780528D7DBDFF8B007EF
:1020D000DFF8A81709680160DFF8A007006802BDF3
:1020E00010B5DFF8A007C06900F0DCFFDFF8981733
:1020F0000860DFF898070068DFF894170968081887
:10210000022190FBF1F0DFF88C170860DFF8780708
:102110000068DFF880170968401ADFF87C1708604C
:10212000DFF874070068DFF874170968401ADFF8F1
:1021300070170860DFF86C07DFF860170968016046
:10214000DFF85807DFF8501709680160DFF8480723
:10215000006800F0C9FFDFF82C17496900F0DCFFC8
:10216000DFF844170860DFF83807006800F0BCFFAC
:10217000DFF81017096900F0CFFFDFF82C170968A6
:1021800001F036F80400DFF810070068DFF80C17DC
:102190000968B0EB4100DFF80C170968081800F077
:1021A000A3FFDFF8E016896900F0B6FF210001F017
:1021B0001FF8DFF8F4160860DFF8F006DFF8F01615
:1021C00009680160DFF8E8060168DFF8DC060068EE
:1021D00001F00EF8DFF8D8160860DFF8D806002105
:1021E000016010BD10B5DFF8C8060068DFF8BC1646
:1021F000096801F03FF80400DFF8B8060068401CE9
:10220000DFF8B016086000F06FFF210000F084FFD7
:10221000DFF8A41601F0A2F8DFF89016096800F0C4
:10222000E7FFDFF898160860DFF89006006800F016
:1022300039FF10BD80B5FFF7ADFEDFF884160860EA
:10224000DFF88006DFF87816096849420160DFF898
:102250007806006800F048FFDFF82816096A00F0E9
:102260005BFFDFF868160860DFF85806006800F0CA
:102270003BFFDFF8F015096800F04EFF00F012FF99
:10228000DFF84C160860DFF84406006800F00AFF2B
:10229000DFF840160860DFF828060068002812D52D
:1022A000DFF82C060068DFF82C1609680818404291
:1022B000DFF824160860DFF82406DFF81C1609682A
:1022C0004942016010E0DFF808060068DFF80416F4
:1022D00009680818DFF804160860DFF8FC05DFF865
:1022E000FC15096849420160002002BD38B5DFF8DD
:1022F000F005DFF8F015096849420160DFF8E005F4
:102300000068B0F59170FFF761F9DFF8DC25DFF8C0
:10231000DC35FFF733FA01F09FF8DFF8D4150860D9
:10232000DFF800050088A0F2B770B421484340F2FE
:10233000CB7190FBF1F000F0D7FEDFF84815496A49
:1023400000F098FFDFF8AC150860DFF8A80500681A
:10235000DFF8A41501F0C8F804D8DFF89805DFF815
:102360009C150160DFF88C050068DFF8941501F01A
:10237000CDF804D2DFF87C05DFF884150160DFF8C2
:102380008405DFF8841509680160DFF868050068D6
:10239000DFF87015096800F06DFF5FF0814100F013
:1023A000DDFFDFF868150860DFF85C05006801F004
:1023B000BFF804000D00DFF838050168DFF84C05B0
:1023C000006800F015FF01F0B3F8DFF84425DFF8EE
:1023D0004435FFF7D3F922002B00FFF705FC01F08D
:1023E0003BF8DFF824150860DFF818050168DFF80E
:1023F000280500F091FE0400DFF8F4040168DFF81E
:10240000B80400F089FE210000F0F2FE00F04AFE60
:10241000DFF808150860DFF86C04C069DFF8001504
:102420000860DFF87004006800F05EFEDFF8F0146A
:102430004860DFF8EC04DFF8701409688160DFF8A9
:10244000DC04006832BD10B5DFF8D804DFF8CC1426
:1024500009680160DFF8CC040468DFF860040068F4
:1024600000F020FE201ADFF8BC140860DFF86804D2
:102470000068DFF8B01409680818DFF85C14086019
:10248000DFF858040068DFF89C1409680818DFF8C2
:102490004C140860DFF840040068B0F5617F04DB8D
:1024A000DFF834044FF461710160DFF82C04006838
:1024B000DFF87414884204DADFF81C04DFF86C14C7
:1024C0000160DFF818040068B0F5617F04DBDFF815
:1024D0000C044FF461710160DFF800040068DFF85C
:1024E0004814884204DADFF8F403DFF8401401608E
:1024F000DFF8E403006801280CDB00220021002043
:1025000000F0ACFCDFF8D00302680121002000F0ED
:10251000A5FC0CE0DFF8C003006842420021002067
:1025200000F09CFC00220121002000F097FCDFF865
:10253000AC03006801280CDBDFF8A003026802216D
:10254000002000F08BFC00220321002000F086FC1C
:102550000BE000220221002000F080FCDF48006830
:1025600042420321002000F079FC002010BD80B51C
:10257000002344F620620021002000F031FB0023FC
:1025800044F620620121002000F02AFB002344F6DB
:1025900020620221002000F023FB002344F6206289
:1025A0000321002000F01CFB012000F0C4FC0321EB
:1025B0000C2000F0FCFF03210D2000F0F8FF0220AA
:1025C00000F0B9FC03210A2000F0F1FF03210B20E9
:1025D00000F0EDFF2F2000F0AFF92D2000F0ACF956
:1025E0002E2000F0A9F9292000F0A6F92A2000F0F9
:1025F000A3F9282000F0A0F9102000F09DF9012295
:102600000121042000F0FEFF01220021182000F02B
:10261000F9FF012200211B2000F0F4FF012200211C
:102620001A2000F0EFFF012200211D2000F0EAFF38
:1026300001220121802000F0E5FF012201218220FA
:1026400000F0E0FF01220121832000F0DBFF0122E6
:102650000121842000F0D6FF01220121852000F015
:10266000D1FF01220021812000F0CCFF0321812035
:1026700000F09DFF01F094F80028FBD001F09FF9D5
:10268000AB480168002001F0A7FAAA49542001F0E4
:10269000F2FA002002BD0000740EFF1F80B5182062
:1026A00001F05CF8012812D11B2001F057F8012835
:1026B0000DD11A2001F052F8012808D11D2001F097
:1026C0004DF8012803D1604801210160A6E01820DF
:1026D00001F044F8002812D11B2001F03FF8012836
:1026E0000DD11A2001F03AF8012808D11D2001F07F
:1026F00035F8012803D15448022101608EE01820EA
:1027000001F02CF8012812D11B2001F027F8002835
:102710000DD11A2001F022F8012808D11D2001F066
:102720001DF8012803D148480321016076E01820F4
:1027300001F014F8012812D11B2001F00FF8012834
:102740000DD11A2001F00AF8002808D11D2001F04F
:1027500005F8012803D13C48042101605EE01820FF
:1027600000F0FCFF012812D11B2000F0F7FF012828
:102770000DD11A2000F0F2FF012808D11D2000F031
:10278000EDFF002803D130480521016046E0182004
:1027900000F0E4FF002812D11B2000F0DFFF012829
:1027A0000DD11A2000F0DAFF012808D11D2000F019
:1027B000D5FF002803D12448062101602EE018200F
:1027C00000F0CCFF002812D11B2000F0C7FF00282A
:1027D0000DD11A2000F0C2FF012808D11D2000F001
:1027E000BDFF002803D118480721016016E018201A
:1027F00000F0B4FF002811D11B2000F0AFFF00282B
:102800000CD11A2000F0AAFF002807D11D2000F0EB
:10281000A5FF002802D10C480821016001BD00007D
:102820009C0EFF1F6C0FFF1F240BFF1F700FFF1F5D
:10283000280BFF1F6F0FFF1F6E0FFF1F730FFF1F70
:10284000720FFF1F710FFF1F000EFF1FA80EFF1F4B
:10285000B40EFF1FAC0EFF1FB80EFF1FB00EFF1F00
:10286000BC0EFF1F4C0EFF1F0000C0410000B8410E
:102870000000B0410000A8410000A041540EFF1F1D
:10288000C00EFF1FD80EFF1F480EFF1FC40EFF1FF4
:10289000C80EFF1F200EFF1F2C0EFF1F240EFF1F50
:1028A000300EFF1F280EFF1F340EFF1F400EFF1FAC
:1028B000440EFF1F380EFF1F000020413C0EFF1F7B
:1028C000700EFF1F640EFF1F0C0FFF1F500EFF1F27
:1028D000680EFF1F6C0EFF1F580EFF1F5C0EFF1FC0
:1028E000080EFF1F080FFF1F4850FC1873D7723FD8
:1028F000040EFF1F100EFF1F0100B4420000B4427F
:102900000000B4C2140EFF1F180EFF1F0C0EFF1F95
:102910007B14AE47E17A743F000082431C0EFF1F18
:10292000CC0EFF1F600EFF1F7DFCFFFF7CFCFFFF36
:10293000180FFF1FF558000010B50400E4B260093D
:10294000C0B2002802D0012811D021E09F480068C1
:1029500050F000609D4908609D48006830F090008C
:102960009B4908609A489A490968016014E09948AF
:10297000006850F00060974908609548006830F49E
:10298000104093490860924891490968016003E04A
:102990003321914801F09BF9E4B2002C00F08980CA
:1029A000012C00F08680032C00F08380082C4ED090
:1029B000092C51D00A2C54D00B2C57D00C2C5AD0A7
:1029C0000D2C5DD00E2C60D00F2C63D0102C70D04D
:1029D000112C64D0122C67D0132C6AD0142C68D020
:1029E0001A2C66D01D2C64D01E2C62D0202C61D0F5
:1029F000212C5FD0232C5DD0242C5CD0252C5FD0E3
:102A0000262C62D0272C65D0282C68D0292C6BD09E
:102A10002A2C6ED02B2C71D02C2C74D02D2C77D04E
:102A20002E2C7AD02F2C7DD0302C00F08580312CAC
:102A30007DD0322C00F08080332C7DD0342C7BD0A4
:102A40003A2C79D03D2C77D03E2C75D075E0002102
:102A5000202000F095FD74E00021212000F090FD81
:102A60006FE00021072000F08BFD6AE000210820C4
:102A700000F086FD65E00021222000F081FD60E08D
:102A80000021232000F07CFD5BE00021402000F0CD
:102A900077FD56E00021412000F072FD51E0002159
:102AA000982000F06DFD4CE00021992000F068FDB9
:102AB00047E046E045E00021802000F061FD40E075
:102AC0000021812000F05CFD3BE00021822000F02D
:102AD00057FD36E00021832000F052FD31E0002157
:102AE000202000F04DFD2CE00021212000F048FDC9
:102AF00027E00021242000F043FD22E000212520D2
:102B000000F03EFD1DE00021262000F039FD18E018
:102B10000021272000F034FD13E000212A2000F0DE
:102B20002FFD0EE000212B2000F02AFD09E00021FE
:102B3000112000F025FD04E003E09A21264801F071
:102B4000C6F810BD38B5C0B244090025C9B2C0B23C
:102B500000F01BF8E4B2214850F824000068000699
:102B6000F8D5E4B21D4850F824000569E4B21B48CA
:102B700050F82400006830F08000E4B2174951F8A2
:102B800024100860280080B232BDC0B2420910F0A3
:102B90001F00D2B2114B53F82230C9B2890011F094
:102BA0000C0151F050019960D2B20C4951F8221039
:102BB0000423CB60D2B2094951F82210C0B210F000
:102BC0001F0050F040000860704700003C80044047
:102BD00018800440308004407C5B00002C0BFF1FF9
:102BE0002DE9F04704000D0016001F00E4B2002C90
:102BF0000DD0E4B2012C02D0E4B2022C02D1EDB22D
:102C0000022D04DB2E21DFF8880401F060F8DFF8E4
:102C1000840400684FF47A7148434010B04204D2F3
:102C20002F21DFF86C0401F052F8E4B2002C03D03D
:102C3000022C64D048D37DE0DFF85C04006850F0DB
:102C40008070DFF854140860EDB2002D0BD0022D17
:102C500015D00ED3042D1ED017D3062D27D020D388
:102C6000072D2AD02FE04FF48061412000F088FC2E
:102C700060E04FF48061422000F082FCF8E74FF4FE
:102C80004071052000F07CFCF2E74FF44071062013
:102C900000F076FCECE74FF44071072000F070FC88
:102CA000E6E74FF48061652000F06AFCE0E74FF44E
:102CB0008061662000F064FCDAE74FF480616720F1
:102CC00000F05EFCD4E7C7E0DFF8CC03006850F00A
:102CD0000070DFF8C4130860EDB2002D02D0012DA2
:102CE00006D00BE04FF440710C2000F049FC21E0CD
:102CF0004FF440710D2000F043FCF8E7ACE0DFF842
:102D00009C03006850F08070DFF890130860EDB20B
:102D1000002D02D0012D06D00BE04FF440710A20A7
:102D200000F02EFC06E04FF440710B2000F028FC70
:102D3000F8E791E0DFF85C0300684FF47A714843EC
:102D40005FEA60095FEA1940B0FBF6F05FF0000A45
:102D500001E01AF1010A80B250FA0AF10129F8DA09
:102D60005FFA8AFABAF1080F05DB4FF48671DFF8D3
:102D7000200300F0ACFF39FA0AF0B0FBF6F0E4B241
:102D8000002C03D0022C13D009D31AE080B2411CCE
:102D900001FB07F14FF47A72B1FBF2F811E080B257
:102DA000411C01FB07F14FF47A72B1FBF2F808E025
:102DB00080B2411C01FB07F14FF47A72B1FBF2F8CB
:102DC000FFE7EDB2E4B2DFF8D81251F8241011EBAE
:102DD000C501EDB2E4B2DFF8C82252F8242012EBAC
:102DE000C502D26832F00402CA60EDB2E4B2DFF884
:102DF000B01251F8241011EBC5012822CA60E4B2C8
:102E0000DFF89C1251F824105FFA8AFA1AF00702D0
:102E100052F028020A60E4B2DFF8841251F824105C
:102E200080B28860E4B2DFF8780250F82400002114
:102E3000C164EDB2E4B2DFF8680250F8240010EB90
:102E4000C5001FFA88F8C0F81080E4B2DFF850021D
:102E500050F8240000214160BDE8F087F8B5040077
:102E60000D0016000020E4B2002C0ED0E4B2012CBC
:102E700002D0E4B2022C02D1EDB2022D05DB40F209
:102E80004711DFF80C0200F022FFE4B2002C03D05F
:102E9000022C15D00AD31DE0B6F57A7F05D94FF480
:102EA000A671DFF8EC0100F012FF13E0B6F57A7FAF
:102EB00005D94FF4A871DFF8D80100F008FF09E048
:102EC000B6F57A7F05D94FF4AA71DFF8C40100F096
:102ED000FEFEFFE7E4B2DFF8C80150F82400806886
:102EE0000028F7D0E4B2002C03D0022C11D008D374
:102EF00017E0401C00FB06F04FF47A71B0FBF1F7CD
:102F00000FE0401C00FB06F04FF47A71B0FBF1F7C4
:102F100007E0401C00FB06F04FF47A71B0FBF1F7BC
:102F2000FFE7EDB2E4B2DFF8780150F8240010EBCF
:102F3000C5000761F1BD10B50400E4B2012C07D053
:102F4000E4B2022C04D04FF43571514800F0BFFEBA
:102F5000E4B22000012802D0022811D021E04E481E
:102F6000006850F000704C4908604FF4E0610C209C
:102F700000F006FB4FF4E0610D2000F001FB15E0CE
:102F80004648006850F08070444908604FF4C061C2
:102F90000A2000F0F5FA4FF4C0610B2000F0F0FABF
:102FA00004E04FF447713A4800F091FEE4B23C4827
:102FB00050F82400406D50F00400E4B2384951F854
:102FC00024104865E4B2364850F82400D0F8800058
:102FD00050F00800E4B2324951F82410C1F88000E2
:102FE000E4B22F4850F824000021C164E4B22C4818
:102FF00050F824004FF6FF718160E4B2284850F881
:103000002400D0F8800050F00100E4B2244951F8C7
:103010002410C1F88000E4B2214850F82400406D2B
:1030200050F00100E4B21E4951F824104865E4B2A2
:103030001B4850F824000021416010BD10B5040069
:10304000E4B2012C07D0E4B2022C04D040F23931B2
:103050000F4800F03CFEE4B2114850F824004068EC
:1030600000B210BD10B50400E4B2012C07D0E4B2E8
:10307000022C04D040F24731054800F028FEE4B2AB
:10308000074850F824000021416010BD00000000F6
:10309000B85B0000180FFF1F3C80044030800440E4
:1030A000340BFF1F4100090E7F3915D4D1F11F01E8
:1030B00014D4400007D2C00140F00040C84048BFCF
:1030C0006FF000407047C00140F00040C8404CBF66
:1030D0004FF00040404270470020704700424FF0E0
:1030E000004058BFC0437047002840F10780F446B5
:1030F000404200F003F850F0004060470AD0B0FAB8
:1031000080F18840D1F19D01C905020672F10042AB
:1031100041EB102070470000FF2212EAD05C1DBF77
:1031200012EAD153944593422BE09C44D30780EAA2
:1031300001021A4043EA002043EA0121A1FB0030CA
:10314000410038BF40007CF17F010BDBFE294ADAE9
:103150005B0842EAC15153EA006373F1004C51EB42
:1031600010207047D1F1080CDCF120012FDB5B0847
:1031700010FA01F10B4373F1004120FA0CF05041B9
:10318000704794451CBF02EAD153934280EA010282
:1031900002F000421DD0400019D0490017D05BB9A1
:1031A000634514D00902B1FA81F39940BCEB030CDA
:1031B000C00140F00040C1E70002B0FA80FC10FA04
:1031C0000CF0B3EB0C0CC90141F00041B6E7100064
:1031D000704740000AD0490008D010F1807F94BFAA
:1031E00011F1807F02E042F0FF407047D04370470A
:1031F00090EA010F44BF81F0004100F043B800BFE6
:10320000421A3CBF801A89184FF0004CC0F3C752D5
:10321000FF2A24D0C1F3C75313B3D21AD2F1190332
:1032200027DD4CEA01214CFA03F321EA0303D140E4
:10323000C20D4CEA0020401834BF20EA0C004CEAD2
:103240005000D20553EA006373EB0C0C52EB1020D4
:10325000420012F1807F38BF7047C00DC005704733
:10326000490212BF9A4200EB5120F8E7D2F117034E
:10327000D9D5704790EA010F44BF81F00041FFF7B4
:10328000BFBF00BF431A4FF000423EBF5340C01AB9
:10329000C91800BFD3095FEAD05C13EB400F34BFFD
:1032A000B3EB410F40E07CEBD1530CD342EA012158
:1032B00022D8D1EB402009D3400A28BF5FEA500151
:1032C00040EBCC507047401A15D04002B0FA80F263
:1032D000521C9040400A4FEA3C23B3EB026384BF88
:1032E00000EB730007E040F400001A16DB07C2F1A0
:1032F0000102D04018437047182BFCDC31FA03F26E
:1033000002FA03F3591A38BF42F00102D2EB40200F
:103310003CBF4000ACF1010C5FEACC5CC20572F12D
:1033200000414CEB5020704713EB400F0FD24B0085
:1033300009D0ACEBD153022B03DB4902172BDDDDA7
:1033400070479143401A4300D5D10020704713EBDA
:10335000410FD0D36FF000007047000010B5FF237D
:1033600013EAD0541DBF13EAD1529C429A4239E06D
:10337000A41ADA0780EA0103134042EA012142EA73
:103380000020421A3CBF641E01EB4202090AB2FB54
:10339000F1FE01FB1E221202B2FBF1F001FB102232
:1033A0006EF30F201202B2FBF1FE4EEA00207F34D2
:1033B00006DDFE2C24DA53EA500050EBC45010BD59
:1033C000D4F1020401FB1E2240F08071192C1DDC97
:1033D00021FA04F0C4F12004A140114371F100422C
:1033E000584110BD9C421ABF03EAD1529A420FE0E5
:1033F00080EA010E0EF00043400004D0490016D1CF
:1034000043F0FF4010BD490008BFD343180010BD72
:103410009C4205D1D21AF7D001F00041484010BDBE
:103420004A0212BF0846484000F0004010BD4AB9A9
:103430000902B1FA81F2914044B1A418C00140F0F0
:1034400000409EE7C90141F0004152420002B0FA3B
:1034500080F4A040141B94E74FEAF17CBCF1E04CEF
:103460002CBFBCF5001F11E05FEA4C0C34BFBCF16F
:103470007F5F2EE05FEA9C0C4FEA0C1C4FEA3C0C8D
:10348000C10071F100414CEB50707047C90241EA34
:103490005051C00218BF41F0010141F000414FEA14
:1034A0006C50C0F10900212810D240EACC7CCCF14C
:1034B000200C11FA0CF070F10040CCF1200C21FA34
:1034C0000CF00CF0004C40EB0C0070474FEACC7055
:1034D0007047490011F5001F04D84FEACC10FF30A7
:1034E000C0057047C81770474FF0807C1CEB400F39
:1034F00094BF1CEB410F05E040EA010C5FEA4C0C65
:1035000001D28142704718BF884270474FF0807CDB
:103510001CEB400F94BF1CEB410F05E040EA010C8F
:103520005FEA4C0C01D28842704718BF8142704755
:103530005FF0FF0C1CEAD05114BF614506E0C110DA
:10354000400721F0E04101F16051704779B900F086
:10355000004100020AD0B0FA80FC00FA0CF001F140
:103560006051A1EB0C5101EBD021400570474102A5
:103570000CBF40F4E0016FF0000100207047000034
:1035800010B41E4A12684FF40073C0B24409A3403D
:103590001A431A4B1A60C0B210F01F02C0B2401199
:1035A000174B53F8200040F8221010BC704710B49D
:1035B000124A12684FF40073C0B24409A3401A4380
:1035C0000E4B1A6031F4E061C0B210F01F02C0B2BD
:1035D00043110B4C54F8233053F8222012F4E062CC
:1035E0001143C0B210F01F02C0B24011044B53F897
:1035F000200040F8221010BC7047000038800440C2
:10360000B80BFF1F70B504000E0015004FF4807159
:103610002000C0B2FFF7B4FFF6B2002E11D1E4B221
:1036200060115D4951F82000E4B261115A4A52F824
:1036300021104969012214F01F039A40914341610E
:1036400036E0E4B26011544951F82000E4B261114F
:10365000514A52F821104969012214F01F039A407F
:1036600011434161EDB2002D11D1E4B260114A491C
:1036700051F820000068012114F01F029140884396
:10368000E4B26111444A52F82110086010E0E4B23B
:103690006011414951F820000068012114F01F0217
:1036A00091400843E4B261113B4A52F8211008608E
:1036B00070BD38B504000D00E4B26011364951F810
:1036C0002000406914F01F01C840C00703D46321E3
:1036D000324800F0FCFAEDB2002D11D1E4B26011D5
:1036E0002D4951F820000068012114F01F0291407B
:1036F0008843E4B26111284A52F82110086010E0B2
:10370000E4B26011244951F820000068012114F04E
:103710001F0291400843E4B261111F4A52F8211080
:10372000086031BD10B50400E4B260111A4951F8C7
:103730002000406914F01F01C840C00703D47B215A
:10374000164800F0C4FAE4B26011134951F82000A1
:10375000012114F01F029140C16010BD10B504009A
:10376000E4B260110C4951F82000406914F01F01C7
:10377000C840C00703D58C21084800F0A8FAE4B27D
:103780006011054951F82000006914F01F01C8407C
:1037900010F0010010BD0000400BFF1F805A000018
:1037A00080B53149002000F00BFB4FF4967000F01B
:1037B000EFFC00236B226821002000F04DFC042365
:1037C00019226821002000F047FC00231A226821FA
:1037D000002000F041FC08231B226821002000F09B
:1037E0003BFC00231C226821002000F035FC7522E0
:1037F0006821002000F07CFB1C4908701B48007801
:10380000682801D1012000E0002002BD80B54322DC
:103810006821002000F06CFB1549087044226821E3
:10382000002000F065FB1349087011480078000281
:1038300010490978401800B202BD80B547226821BE
:10384000002000F055FB0A4908704822682100203A
:1038500000F04EFB07490870054800780002054952
:103860000978401800B202BD801A0600760FFF1FCB
:10387000740FFF1F750FFF1F80B501214A20FFF74E
:1038800018FF01214B20FFF714FF00214B20FFF709
:1038900010FF00214A20FFF70CFF01BD80B5002179
:1038A0004A20FFF706FF00214B20FFF702FF01210E
:1038B0004A20FFF7FEFE01214B20FFF7FAFE01BD73
:1038C00038B5040000250DE000214B20FFF7F1FE84
:1038D00001214A20FFF7EDFE00214A20FFF7E9FE13
:1038E00064006D1CEDB2082D06DA2006ECD501212E
:1038F0004B20FFF7DEFEEBE701214B20FFF7D9FE5F
:1039000001214A20FFF7D5FE00214A20FFF7D1FE12
:1039100031BD10B50400FFF7AFFF7820FFF7D0FFEF
:103920004020FFF7CDFF2000C0B2FFF7C9FFFFF72F
:10393000B5FF10BD10B50400FFF79EFF7820FFF71C
:10394000BFFF0020FFF7BCFF2000C0B2FFF7B8FFA9
:10395000FFF7A4FF10BD10B50400B1F15000C0B2D4
:10396000FFF7E8FFE4B2200950F01000C0B2FFF703
:10397000E1FF14F00F0050F00100C0B2FFF7DAFFD2
:1039800010BD70B50400002508E02000C0B2FFF7AC
:10399000C0FF761CF6B2802EF7DB6D1CEDB2082D51
:1039A0000CDAB5F15000C0B2FFF7C4FF0120FFF7F9
:1039B000C1FF1020FFF7BEFF0026EBE770BD80B50A
:1039C000012201214A20FFF71DFE012201214B2087
:1039D000FFF718FE4FF4FA7000F001FCAE20FFF77D
:1039E000A9FF0020FFF7A6FF1020FFF7A3FF40204C
:1039F000FFF7A0FF8120FFF79DFFCF20FFF79AFF81
:103A0000A120FFF797FFC820FFF794FFA620FFF73C
:103A100091FFA820FFF78EFF3F20FFF78BFFD320F9
:103A2000FFF788FF0020FFF785FFD520FFF782FF13
:103A30008020FFF77FFFD920FFF77CFFF120FFF701
:103A400079FFDA20FFF776FF1220FFF773FFDB2004
:103A5000FFF770FF4020FFF76DFF2020FFF76AFFA0
:103A60000220FFF767FF8D20FFF764FF1420FFF7A8
:103A700061FFA420FFF75EFFA620FFF75BFFAF20EA
:103A8000FFF758FF0020FFF77CFF00210020FFF721
:103A900062FF01BD2DE9F84304000D001600002768
:103AA0005FF000085FF0000914E05FFA88F8FFB2E9
:103AB0000620484900FB071018F80000FFF729FF0F
:103AC00018F101085FFA88F8B8F1060FEDDBA41DC4
:103AD00019F101095FFA89F919F80600002813D0D5
:103AE0005FFA89F919F80600B0F12007E4B27F2CDB
:103AF00001DB00246D1C2900C9B22000C0B2FFF711
:103B00002AFF5FF00008DDE7BDE8F18338B5140057
:103B10000025C9B2C0B2FFF71EFF002005000BE070
:103B2000EDB2E4B206202B4900FB0410281810F86F
:103B3000C00CFFF7EEFE6D1CEDB2062DF0DB31BDC3
:103B40002DE9F84380460C00170042F210755FF033
:103B500000090026002F09D52D222100C9B24046B8
:103B6000C0B2FFF7D3FF7F4218F106085FF00009EB
:103B70001FE0ADB297FBF5F00A2190FBF1F201FBDB
:103B80001200C0B2002802D1F6B2012E0BD110F102
:103B90003002D2B22100C9B24046C0B2FFF7B6FF30
:103BA00018F106080126ADB20A2095FBF0F519F1CF
:103BB00001095FFA89F9B9F1050FDADB04A22100E6
:103BC000C9B24046C0B2FFF765FFBDE8F18300000F
:103BD00020202000B053000038B504000D00002D57
:103BE00003D12421174800F072F81748006850F4F8
:103BF000000015490860154800210160E4B2200169
:103C000013496A1E4250E4B2114810EB0410C06818
:103C100050F00100E4B20E4911EB0411C860E4B2A7
:103C20000B4810EB0410806840084000E4B20849DB
:103C300011EB04118860E4B2054810EB0410032175
:103C4000816031BD305C00003C8004400070034066
:103C50000071034010B504004FF4007094FBF0F1C4
:103C600001FB1041002903D01E210B4800F02FF862
:103C70000A48046010BD38B504000D00074800680C
:103C80000749884203D03021034800F020F8E4B20D
:103C9000034840F8245031BD6C5C000008ED00E0A2
:103CA0000000FF1FDFF800F04D0CFF1FDFF800F0F1
:103CB000690CFF1FBFF34F8F3948006810F4E060B4
:103CC0003849084336490860BFF34F8FFEE780B597
:103CD0000A000100344800F099FAFEE710B504002C
:103CE0002100C9B2042000F09FFB200010BD10B5D8
:103CF0000024042000F0B2FB042000F0E3FB0028C5
:103D000040D1002000F0F6FB0CE0284800F07EFADD
:103D1000FFF7C8FF642000F03BFA0020FFF7C6FF62
:103D2000FFF7C8FF042000F0CDFB012800D10124DB
:103D3000002000F0FBFB1E4800F068FA4FF4FA7018
:103D400000F026FAE4B2012CECD1042000F0BAFB1A
:103D50000028E7D105E0002000F0E8FB642000F037
:103D600017FA042000F0AEFB0028F4D0042000F085
:103D7000A9FB0128C9D1002000F0D8FB322000F0B7
:103D800007FAF3E710BD80B50A480178C9B20F20E1
:103D9000094A00FB0122C9B2084800F037FA01BD08
:103DA0000CED00E00400FA05CC5C0000005D0000B2
:103DB000845D000004ED00E01C04FF1F405B000078
:103DC0002DE9F043A1B004000D00E4B2002C10D1A5
:103DD000D448006850F04000D249086040F22321E6
:103DE0006820FFF7CDFB40F223216920FFF7C8FBD5
:103DF0000FE0CC48006850F08000CA49086040F2EB
:103E000023214A20FFF7BCFB40F223214B20FFF780
:103E1000B7FB00A8C4498022FDF7AAFAC34800688E
:103E20004CF25131884201DA002607E0BF480068B1
:103E3000BF49884201DA012600E00226BB4800683B
:103E40004FF47A7148430121B1406943B0FBF1F767
:103E50005FF040084FF6FF7906E080B21FFA89F95B
:103E6000484501D2454681465FFA88F8B8F1000F0F
:103E70000ED0B8F10108BFB25FFA88F800A830F898
:103E80001800381A00F05CFB80B20028E5D14546E6
:103E9000E4B2A84850F8240015F03F0151EA861119
:103EA0004170E4B2A34850F82400802181709F48FB
:103EB00000684FF47A7148430121B140EDB200AA85
:103EC00032F81520514390FBF1F021B0BDE8F083AA
:103ED00081B05020ADF8000000E000BFBDF8000048
:103EE000411EADF8001080B20028F6D101B0704735
:103EF00070B504000D001600280603D5AA218E48CF
:103F0000FFF7E5FEE4B28B4850F82400807850F0CB
:103F10003000E4B2874951F824108870E4B2854833
:103F200050F8240069000171E4B2824850F824007E
:103F3000C0788007F8D5E4B27E4850F82400C078F5
:103F400050F00200E4B27B4951F82410C870E4B28A
:103F5000784850F824000671E4B2764850F82400FE
:103F6000C0788007F8D5E4B2724850F82400C078D1
:103F700050F00200E4B26F4951F82410C870E4B266
:103F80006C4850F82400807850F00400E4B269498D
:103F900051F824108870E4B2664850F82400690093
:103FA00051F001010171E4B2624850F82400C07878
:103FB0008007F8D5E4B25F4850F82400C07850F08C
:103FC0000200E4B25B4951F82410C870E4B25948C9
:103FD00050F82400807810F0EF00E4B2554951F811
:103FE00024108870E4B2534850F82400807850F0D0
:103FF0000800E4B24F4951F824108870E4B24D48EB
:1040000050F824000579E4B24A4850F82400C078FA
:104010008007F8D5E4B2474850F82400C07850F043
:104020000200E4B2434951F82410C870E4B2414898
:1040300050F82400807810F0CF00E4B23D4951F8E8
:1040400024108870E4B23B4850F824000579FFF74B
:104050003FFF2800C0B270BD38B5C0B2354C54F82F
:104060002040A47854F03004C0B2324D55F82050AE
:10407000AC70C0B22F4C54F8204049002171C0B23E
:104080002C4951F82010C9788907F8D5C0B22949C0
:1040900051F82010C97851F00201C0B2254C54F8F3
:1040A0002040E170C0B2234951F820100A71C0B21B
:1040B000204951F82010C9788907F8D5C0B21D49A8
:1040C00051F82010C97851F00201C0B2194A52F8D3
:1040D0002020D170C0B2174951F820100B71C0B226
:1040E000144951F82010C9788907F8D5C0B2114990
:1040F00051F82010C97851F00201C0B20D4A52F8AF
:104100002020D170C0B20B4951F82010897811F0ED
:10411000CF01C0B2074A52F820008170FFF7D8FEE5
:1041200031BD000034800440C0590000180FFF1F4B
:10413000A1860100540BFF1FF45B000010490968C1
:1041400051F080710E4A11600E49096851F0010169
:104150000C4A11600C4909680C4A12684FF47A73D2
:1041600092FBF3F250434018884203D20649096893
:104170008842FBD3044909688142FBD370470000A1
:10418000FCED00E0001000E0041000E0100FFF1F45
:1041900010B5040003E04FF47A70FFF7CFFF200062
:1041A000441E0028F7D110BD10B50400002C15D016
:1041B000B4F1807F03D329210F48FFF788FD0F4812
:1041C000002101600E4804600E48002101600B4888
:1041D0000521016009480068C003FBD510BD10B57A
:1041E000040003E008480068FFF7DEFF2000441EDB
:1041F0000028F7D110BD0000C05A000010E000E018
:1042000014E000E018E000E0100FFF1F0EB400B54E
:1042100082B003A90091024600AB01210348784413
:104220000A30FCF7F9F806BC5DF810FB351B0000FE
:1042300070B504000D00E4B2002C08D0022C2CD084
:1042400018D3042C4FD03BD3052C5FD071E0DFF89E
:10425000F401006850F48060DFF8E81108604FF462
:1042600040716620FFF78CF94FF440716720FFF72B
:1042700087F95EE0DFF8CC01006850F40060DFF8F9
:10428000C41108604FF440714320FFF779F94FF4EF
:1042900040714420FFF774F94BE0DFF8A801006893
:1042A00050F48050DFF89C1108604FF44071632097
:1042B000FFF766F94FF440716220FFF761F938E0CB
:1042C000DFF88001006850F40050DFF878110860D2
:1042D0004FF440715020FFF753F94FF440715120D3
:1042E000FFF74EF925E0DFF86001006850F48060C8
:1042F000DFF8541108604FF440714E20FFF740F989
:104300004FF440714F20FFF73BF912E0DFF838011E
:10431000006850F40060DFF8301108604FF440711D
:104320008920FFF72DF94FF440718820FFF728F915
:10433000FFE7E4B2454850F82400C07810F0F300DD
:10434000E4B2424951F82410C870E4B23F4850F832
:104350002400E4B23D4951F8241089788170E4B218
:10436000002C02D0E4B2012C05D1394800684FF48A
:104370007A71484304E0374800684FF47A71484343
:104380002901B0FBF1F6B6B2B6F5005F01DB41F6EC
:10439000FF76B0FBF5F0B6B2B0EB0615ADB2202D4E
:1043A00004DB40F203112C48FFF791FCE4B22748EC
:1043B00050F82400007810F0E000B6B2310A11F095
:1043C0001F010843E4B2214951F824100870E4B2F7
:1043D0001E4850F824004670E4B21C4850F82400EF
:1043E000807A10F0E000E4B2184951F8241015F07A
:1043F0001F0210438872E4B2144850F82400007C75
:1044000050F08800E4B2114951F824100874E4B265
:104410000E4850F82400C07850F00C00E4B20B496C
:1044200051F82410C87070BDC0B2084A52F820205C
:1044300012791206F8D5C0B2044A52F82000C171B0
:10444000704700003480044028800440CC0BFF1FDC
:10445000100FFF1F180FFF1F005B000010B50400B6
:10446000E4B2082C0DDA00220021E4B22048205CDE
:10447000FFF7C8F80321E4B21D48205CFFF797F866
:1044800013E008240CE000220021E4B21848205C6C
:10449000FFF7B8F80321E4B21548205CFFF787F86E
:1044A0002000441EC0B20028EDD110BD80B5C0B2BE
:1044B0000F49405CFFF752F9002801D1002000E0CD
:1044C000012002BD10B504002000C0B2FFF7EEFFCE
:1044D00000280AD10A20FFF75BFE2000C0B2FFF7D8
:1044E000E5FF002801D1002000E0012010BD000000
:1044F0001004FF1F10B50400E4B2042C07DA0122F7
:104500000121E4B20D48205CFFF77CF80DE00424A3
:1045100006E001220121E4B20848205CFFF772F8AE
:104520002000441EC0B20028F3D110BD80B5C0B237
:104530000249405CFFF7F6F801BD00001804FF1FB8
:10454000002848BF404270476A6E6B6C676D4E4FE3
:104550003435363700000000000000000000000085
:10456000000000000000000000000000000000004B
:1045700000004E6F6E4D61736B61626C65000000F0
:1045800000486172644661756C74000000000000B0
:104590004D656D4D616E6167656D656E74000042BD
:1045A00075734661756C740000000000000055735F
:1045B0006167654661756C740000000000000000D2
:1045C00000000000000000000000000000000000EB
:1045D00000000000000000000000000000000000DB
:1045E00000000000000000000000000000000000CB
:1045F000000000000000000000535643616C6C0096
:10460000000000000000000044656275674D6F6E99
:1046100069746F72000000000000000000000000DC
:1046200000000000000050656E645356000000005A
:1046300000000000005379735469636B00000000B0
:1046400000000000444D4130000000000000000068
:10465000000000444D413100000000000000000057
:104660000000444D41320000000000000000000046
:1046700000444D4133000000000000000000000035
:10468000444D4134000000000000000000000044E0
:104690004D41350000000000000000000000444DC6
:1046A00041360000000000000000000000444D41C1
:1046B000370000000000000000000000444D4138B9
:1046C0000000000000000000000000444D413900DF
:1046D00000000000000000000000444D41313000A7
:1046E000000000000000000000444D413131000096
:1046F0000000000000000000444D41313200000085
:1047000000000000000000444D4131330000000073
:10471000000000000000444D413134000000000062
:104720000000000000444D41313500000000000051
:1047300000000000444D415F4572726F720000003E
:104740000000004D434D000000000000000000008C
:1047500000004654464C000000000000000000002D
:1047600000526561645F436F6C6C6973696F6E00C2
:104770004C56445F4C565700000000000000004CAF
:104780004C570000000000000000000000005761CE
:10479000746368646F6700000000000000524E47B9
:1047A000000000000000000000000000493243301B
:1047B000000000000000000000000049324331000A
:1047C00000000000000000000000535049300000CD
:1047D00000000000000000000053504931000000BC
:1047E00000000000000000005350493200000000AB
:1047F0000000000000000043414E305F4F525F4D0B
:10480000425F6275660043414E305F4275735F4F91
:10481000666600000043414E305F4572726F720061
:104820000000000043414E305F54785F5761726E64
:10483000696E6743414E305F52785F5761726E69AF
:104840006E6743414E305F57616B655F5570000086
:1048500000526573657276656435310000000000B2
:10486000526573657276656435320000000000435E
:10487000414E315F4F525F4D425F6275660043416A
:104880004E315F4275735F4F666600000043414ED4
:10489000315F4572726F72000000000043414E317B
:1048A0005F54785F5761726E696E6743414E315F46
:1048B00052785F5761726E696E6743414E315F5740
:1048C000616B655F557000000052657365727665B7
:1048D00064353900000000005265736572766564C6
:1048E0003630000000000055415254305F52585F8E
:1048F00054580000000055415254305F4552520058
:10490000000000000055415254315F52585F545826
:104910000000000055415254315F455252000000E2
:1049200000000055415254325F52585F5458000005
:10493000000055415254325F4552520000000000C1
:104940000055415254335F52585F545800000000E4
:1049500055415254335F455252000000000000554B
:10496000415254345F52585F545800000000554182
:104970005254345F4552520000000000005541522D
:1049800054355F52585F545800000000554152544E
:10499000355F4552520000000000004144433000A2
:1049A000000000000000000000004144433100000E
:1049B000000000000000000000434D5030000000E7
:1049C0000000000000000000434D503100000000D6
:1049D00000000000000000434D50320000000000C5
:1049E00000000000000046544D30000000000000B0
:1049F000000000000046544D31000000000000009F
:104A00000000000046544D3200000000000000008D
:104A1000000000434D5400000000000000000000B2
:104A2000000052544300000000000000000000009D
:104A300000526573657276656438330000000000CB
:104A400050495430000000000000000000000050F9
:104A500049543100000000000000000000005049EF
:104A600054320000000000000000000000504954D3
:104A700033000000000000000000000050444230FD
:104A8000000000000000000000000055534230000C
:104A90000000000000000000000055534244434461
:104AA000000000000000000000454E45545F313515
:104AB00038385F54696D6572454E45545F54726174
:104AC0006E736D69740000454E45545F52656365B1
:104AD000697665000000454E45545F4572726F72FD
:104AE00000000000004932533000000000000000C8
:104AF0000000000053444843000000000000000094
:104B000000000044414330000000000000000000AD
:104B1000000044414331000000000000000000009C
:104B20000054534930000000000000000000000065
:104B30004D43470000000000000000000000004C52
:104B40005054696D6572000000000000000052655D
:104B500073657276656431303200000000504F5248
:104B6000544100000000000000000000504F52546B
:104B70004200000000000000000000504F5254436B
:104B800000000000000000000000504F525444009C
:104B9000000000000000000000504F52544500008B
:104BA00000000000000000005265736572766564C5
:104BB00031303800000000526573657276656431EB
:104BC00030390000000052657365727665643131DA
:104BD00030000000005265736572766564313131D2
:104BE00000000000526573657276656431313200F1
:104BF00000000052657365727665643131330000E0
:104C000000005265736572766564313134000000CE
:104C100000526573657276656431313500000000BD
:104C2000526573657276656431313600000000525A
:104C30006573657276656431313700000000526536
:104C40007365727665643131380000000052657317
:104C50006572766564313139000000008C00000017
:104C60008C00000000B0034000B00B400080034007
:104C70000090034000800B4000F00F4040F00F40D8
:104C800080F00F40C0F00F4000F10F400060064080
:104C90000070064066000A1D32000701640007101C
:104CA0006E000406780004088200040A8C00040CDC
:104CB0009600040EA0000410AA000412B40004140C
:104CC000BE000416C8000418D200041ADC00041C3C
:104CD000E100041DE600041EEB00041FF4000317AE
:104CE000FA000318130101062C010214000109083F
:104CF0000090044000A0044000B0044000C0044004
:104D000000D0044000A0064000B0064000C00640AD
:104D100000D0064000A00E4000B00E400204010189
:104D20001C0FFF1F6C0FFF1F1C0FFF1F1C0FFF1F0F
:104D30001C0FFF1F210CFF1F080CFF1F00000000AD
:104D40000000000000000000000000000000000063
:104D5000000000000000000000000000DFF800F08C
:104D6000B50DFF1FC0B2DFF8A41331F82010C0B298
:104D7000002800F07081C0B2162880F26C81DFF844
:104D800090030022027089B2652904DADFF88003FB
:104D9000002242707DE089B2C92904DADFF870038D
:104DA0000122427075E089B2B1F5967F04DCDFF82C
:104DB0006003022242706CE089B2B1F5C87F04DC66
:104DC000DFF84C030322427063E089B2B1F5FA7F49
:104DD00004DCDFF83C03042242705AE089B2B1F5EA
:104DE000167F04DCDFF828030522427051E089B207
:104DF000B1F52F7F04DCDFF818030622427048E08B
:104E000089B2B1F5487F04DCDFF804030722427061
:104E10003FE089B2B1F5617F04DCDFF8F4020822DB
:104E2000427036E089B2B1F57A7F04DCDFF8E00247
:104E3000092242702DE089B240F24D40814203DAEE
:104E4000B3480A22427024E089B2B1F5966F03DCC0
:104E5000AF480B2242701CE089B240F215508142EB
:104E600003DAAB480C22427013E089B2B1F5AF6FA0
:104E700003DCA7480D2242700BE089B240F2DD50FE
:104E8000814203DAA2480E22427002E0A0480F22BB
:104E9000427089B21A2903DA9D480022827069E0C3
:104EA00089B2332903DA9A480122827062E089B21A
:104EB0004C2903DA9648022282705BE089B26529A8
:104EC00003DA93480322827054E089B27E2903DA20
:104ED0008F48042282704DE089B2972903DA8C480A
:104EE0000522827046E089B2B02903DA884806229A
:104EF00082703FE089B2C92903DA854807228270AF
:104F000038E089B2E22903DA81480822827031E070
:104F100089B2FB2903DA7E48092282702AE089B22D
:104F2000B1F58A7F03DA7A480A22827022E089B2D8
:104F3000B1F5967F03DC76480B2282701AE089B2C5
:104F4000B1F5A37F03DA72480C22827012E089B2B5
:104F5000B1F5AF7F03DC6E480D2282700AE089B2A2
:104F6000B1F5BC7F03DA6A480E22827002E068481D
:104F70000F22827089B21A2903DA65480021C170B4
:104F800069E089B2332903DA61480121C17062E026
:104F900089B24C2903DA5E480221C1705BE089B214
:104FA000652903DA5A480321C17054E089B27E2989
:104FB00003DA57480421C1704DE089B2972903DA1A
:104FC00053480521C17046E089B2B02903DA504840
:104FD0000621C1703FE089B2C92903DA4C48072194
:104FE000C17038E089B2E22903DA49480821C1706A
:104FF00031E089B2FB2903DA45480921C1702AE072
:1050000089B2B1F58A7F03DA41480A21C17022E0F2
:1050100089B2B1F5967F03DC3D480B21C1701AE0DF
:1050200089B2B1F5A37F03DA39480C21C17012E0CF
:1050300089B2B1F5AF7F03DC35480D21C1700AE0BC
:1050400089B2B1F5BC7F03DA31480E21C17002E0AC
:105050002F480F21C170704710B504002000C0B266
:10506000FFF780FE2B48007810F0FD0029490870FA
:105070002848007850F01000264908702648B821CA
:10508000017026480078C006FBD424480078C0F39D
:105090008100C0B20228F8D11D48C3781C4882782C
:1050A0001B4841781A480078FFF758FEE4B21748C9
:1050B00010EB8400807810F0070019490870E4B202
:1050C000124810EB8400C07810F01F0050F0400030
:1050D00014490870114800788006FBD50F48007805
:1050E0004006FBD50C48007810F03F000A490870D4
:1050F0000A480078C0F38100C0B20328F8D1E4B2B6
:10510000024830F82400C0B210BD00005C0BFF1F45
:10511000B40BFF1F01400640004006400640064019
:10512000044006400540064040B24109824A01233E
:1051300010F01F0013FA00F042F82100704780B50C
:10514000FDF715FAFDF7AAFA7C487D4901617B4815
:105150007C49416179480021816178487849416200
:1051600076480021C1617548774901624420FFF704
:10517000DBFF4FF4FA60FFF70BF8704873490161E9
:105180006E48734941616D48724981616B4872494B
:10519000C1616A486D4941624FF47A70FEF7F8FFC9
:1051A00066486E4941624FF42F70FEF7F1FF6C487C
:1051B000006801280CD16148664941625F4869492D
:1051C00001615E48624941615C486749C16164E0D0
:1051D0006348006802280CD1584864494162574826
:1051E0006049016155485A49416154485E49C1616D
:1051F00053E05B48006803280CD150485B4941628A
:105200004E48584901614D48514941614B48584900
:10521000C16142E05248006804280CD147484F4918
:10522000416246484F490161444849494161434808
:105230004F49C16131E04A48006805280CD13F4818
:105240003F4941623D48474901613C48404941610D
:105250003A483E49C16120E04148006806280CD127
:1052600036484449416235483E490161334838492E
:10527000416132484049C1610FE039480068072860
:105280000BD12E483D4941622C48364901612B48DB
:105290002F49416129483049C1614FF4FA60FEF756
:1052A00077FF374801210160364A00210020FEF7D0
:1052B000F1FB354A01210020FEF7ECFB334A0221C5
:1052C0000020FEF7E7FB324A03210020FEF7E2FB55
:1052D000304A04210020FEF7DDFB16A20521002044
:1052E000FEF7D8FB2C48027800211920FEF728FC95
:1052F0002A48027801211920FEF722FC284802786A
:1053000002211920FEF71CFC2648027803211920EF
:10531000FEF716FC2448027804211920FEF710FC41
:1053200022480068FDF7BEFE020005211920FEF7A5
:1053300007FCB9E75A483A0000E100E0D80EFF1F29
:105340000000B841CDCCCC3D8FC2F53D00004842B5
:105350006F12833A0000A041000070420000B0418B
:10536000000EFF1F0000F04100000C420000A841A9
:10537000000034420000C04100005C420000C8410F
:10538000040FFF1FA45D0000AC5D0000B45D0000D1
:10539000BC5D0000C45D0000700FFF1F6F0FFF1F9A
:1053A000730FFF1F720FFF1F710FFF1F140EFF1FE0
:1053B0000000000000000000002F000000000700B7
:1053C000070000147F147F1400242A7F2A12006231
:1053D00064081323003649552250000005030000DD
:1053E00000001C224100000041221C000014083E65
:1053F00008140008083E0808000000A0600000082B
:10540000080808080000606000000020100804027E
:10541000003E5149453E0000427F4000004261513C
:105420004946002141454B31001814127F100027D6
:1054300045454539003C4A49493000017109050399
:1054400000364949493600064949291E00003636CA
:10545000000000005636000000081422410000142D
:10546000141414140000412214080002015109060A
:1054700000324959513E007C1211127C007F49498B
:105480004936003E41414122007F4141221C007FBC
:1054900049494941007F09090901003E4149497ACA
:1054A000007F0808087F0000417F41000020404144
:1054B0003F01007F08142241007F40404040007FB0
:1054C000020C027F007F0408107F003E4141413EF4
:1054D000007F09090906003E4151215E007F09193C
:1054E00029460046494949310001017F0101003F39
:1054F0004040403F001F2040201F003F4038403FB9
:10550000006314081463000708700807006151491C
:10551000454300007F41410000552A552A550000AF
:1055200041417F000004020102040040404040402D
:10553000000001020400002054545478007F4844C5
:10554000443800384444442000384444487F0038FC
:105550005454541800087E0901020018A4A4A47C25
:10556000007F080404780000447D400000408084EF
:105570007D00007F102844000000417F4000007C37
:1055800004180478007C0804047800384444443843
:1055900000FC242424180018242418FC007C08048F
:1055A000040800485454542000043F444020003C68
:1055B0004040207C001C2040201C003C4030403CEF
:1055C000004428102844001CA0A0A07C004464547F
:1055D0004C44141414141414DFF800F0CF3C0000F1
:1055E0005248F0210170514800780006FBD54F4821
:1055F00000787121084201D0002000E001207047AE
:105600004B48006850F4002049490860474800783A
:105610000006FBD54548F0210170704710B582B0F7
:105620000400A4B24FF4805000FB04F00090414805
:10563000092101709DF802003F4908709DF80100A2
:105640003E4908703E489DF800100170FFF7C8FF02
:10565000002801D100200EE0A4B2002C0AD15FF096
:10566000FF327FF001034FF48161200080B200F02F
:1056700003F800E0012016BD70B582B00E001400E2
:105680001D0080B24FF48051B6B201FB0060009063
:10569000B6B2082096FBF0F101FB1061002903D09F
:1056A000F5212848FFF798FFB6B2B6F5805F03DD15
:1056B000F7212448FFF790FF9DF802001E4908706B
:1056C0009DF801001D4908701D489DF800100170EB
:1056D00000949DF803001C4908709DF802001B49C6
:1056E00008709DF801001A4908701A489DF80010CA
:1056F000017010480721017000959DF803001649BC
:1057000008709DF80200154908709DF801001449C1
:10571000087014489DF800100170FFF761FF002821
:1057200001D1002000E0012076BD00000000024011
:1057300004F001400700024006000240050002405C
:1057400004000240405A00000B0002400A000240E0
:1057500009000240080002400F0002400E00024013
:105760000D0002400C00024070B4104C24680F4D34
:105770002D6855F47F050D4E3560090611F07061F6
:1057800051EA0070110511F470010843190411F475
:105790007021084306490860002000E0401CC0B2A8
:1057A0009842FBD30148046070BC704700F0014090
:1057B0004480044080B500F07DF800F025F800F04A
:1057C00005F8FEF794FAFFF7BAFCFEE780B50C2067
:1057D000FFF742FC29490860284800684FF47A71B5
:1057E0004843274908602648006826490968C1F3EC
:1057F0000361491CB0FBF1F0234908604FF41651D6
:105800000420FEF715FD01BD80B5204820498842DF
:105810000BD0002006E01D491D4A52F8202041F817
:105820002020401CB0F5826FF5D31848FEF712FA1D
:105830001849194A1948801A03E013780B70521C52
:10584000491C0300581E002BF7D115491548401A72
:1058500002E000220A70491C0200501E002AF8D102
:105860001149124A1248801A03E013780B70521C37
:10587000491C0300581E002BF7D101BD140FFF1F58
:10588000100FFF1F44800440180FFF1F0000FF1F70
:10589000000000001004FF1F484500005C4D0000A0
:1058A000000EFF1F770FFF1F240CFF1FD8550000AD
:1058B000B457000080B500F009F80C4800884FF696
:1058C000FE7108400949088001BD0000EFF3118016
:1058D00072B607494CF220520A8005494DF628124B
:1058E0000A80C0B2002800D162B67047002005408F
:1058F0000E20054080B5FCF7EBF9FDF787FF29493D
:105900000860FCF7F3FCFDF798FF27490860FCF7F7
:1059100091FCFCF767FCFCF796FD24480068401CEE
:1059200022490860214800680A2815D10120FDF7A6
:1059300085FB40421E4908600220FDF77FFB1D49A0
:1059400008600120FDF78EFB0220FDF78BFBFCF7C2
:10595000C7FB16480021016017480068012819D1CB
:105960008120FDF7FBFE002814D100220021002039
:10597000FDF774FA002201210020FDF76FFA0022E2
:1059800002210020FDF76AFA002203210020FDF722
:1059900065FAEAE70948006850F001000749086025
:1059A00001BD0000080FFF1F0C0FFF1F000FFF1F9E
:1059B000C40EFF1FC80EFF1F040FFF1F0C71034012
:1059C0001400160018001A001C001E0022002800F7
:1059D0001C002000240028002C0030003800440067
:1059E0003000380040004800500058006800800037
:1059F00050006000700080009000A000C000F00027
:105A0000A000C000E0000001200140018001E00191
:105A100040018001C0010002400280020003C00377
:105A20008002000380030004800400050006800754
:105A300000050006000700080009000A000C000F1E
:105A4000433A5C55736572735C796B5C4465736B48
:105A5000746F705CB7C9CBBCBFA8B6FB5C696E76CF
:105A6000696E6369626C655C436869705C737263DC
:105A70005C4D4B36305F666C6173682E63000000CE
:105A8000433A5C55736572735C796B5C4465736B08
:105A9000746F705CB7C9CBBCBFA8B6FB5C696E768F
:105AA000696E6369626C655C436869705C7372639C
:105AB0005C4D4B36305F6770696F2E6300000000ED
:105AC000433A5C55736572735C796B5C4465736BC8
:105AD000746F705CB7C9CBBCBFA8B6FB5C696E764F
:105AE000696E6369626C655C436869705C7372635C
:105AF0005C4D4B36305F5379735469636B2E630092
:105B0000433A5C55736572735C796B5C4465736B87
:105B1000746F705CB7C9CBBCBFA8B6FB5C696E760E
:105B2000696E6369626C655C436869705C7372631B
:105B30005C4D4B36305F756172742E63000000005F
:105B40000A2A2A2A2A64656661756C745F69737211
:105B500020656E7465726564206F6E20766563746F
:105B60006F722025642A2A2A2A2A0D0A0A25732000
:105B7000496E74657272757074000000433A5C552A
:105B8000736572735C796B5C4465736B746F705C86
:105B9000B7C9CBBCBFA8B6FB5C696E76696E63699A
:105BA000626C655C436869705C7372635C4D4B3614
:105BB000305F6164632E6300433A5C5573657273B2
:105BC0005C796B5C4465736B746F705CB7C9CBBCFC
:105BD000BFA8B6FB5C696E76696E6369626C655CD2
:105BE000436869705C7372635C4D4B36305F6674FA
:105BF0006D2E6300433A5C55736572735C796B5C20
:105C00004465736B746F705CB7C9CBBCBFA8B6FB3F
:105C10005C696E76696E6369626C655C4368697025
:105C20005C7372635C4D4B36305F6932632E630088
:105C3000433A5C55736572735C796B5C4465736B56
:105C4000746F705CB7C9CBBCBFA8B6FB5C696E76DD
:105C5000696E6369626C655C436869705C737263EA
:105C60005C4D4B36305F5049542E6300433A5C55CF
:105C7000736572735C796B5C4465736B746F705C95
:105C8000B7C9CBBCBFA8B6FB5C696E76696E6369A9
:105C9000626C655C436869705C7372635C6D6973A8
:105CA000632E630010B5074979441831064C7C44D3
:105CB000163404E00A68081D511888470146A142BD
:105CC000F8D110BD2C00000038000000417373654E
:105CD0007274696F6E206661696C656420696E20FC
:105CE0002573206174206C696E652025640A0000AC
:105CF000A7B4FFFF78010000000EFF1F00000000A6
:105D00000ABDF8D0D0BDE2CBF8B2D9D7F7A3ACC763
:105D1000EBD6D8D0C2CBA2C8EBB9CCBCFE000000F9
:105D20000120C046002801D0FFF7BCFF0020C0467C
:105D3000C046FFF704FA00F000F800F001B80000D8
:105D40000746384600F002F8FBE7000080B5C04681
:105D5000C046024A11001820ABBEFBE72600020035
:105D600038B504460D46284600F006F8A84218BF8C
:105D70000024204632BD00000149FDF7AFBF00BF3F
:105D8000E40BFF1F0ABDF8C8EBCBC0D1ADBBB7B564
:105D9000C8B4FDA3A1000000C046C046C046C0462E
:105DA000FFF7BEFF4C202D3A000000004C206C3A5B
:105DB000000000004D202D3A0000000052206C3AF7
:105DC0000000000052202D3A0000000000000000FA
:105DD00000000000000000000000000000000000C3
:105DE0000000000000000000FFFFFFFFFFFFFFFFBB
:105DF00000000000000000000000000000000000A3
:105E00000000000000000000000000000000000092
:105E100000000000FFFFFFFFFFFF00000000000088
:105E20000000000000000000000000000000000072
:105E30000000000000000000000000000000000062
:105E40000000000000000000000000000000000052
:045E5000000000004E
:0400000500005D9901
:00000001FF
